:1000000012C024C023C022C021C020C01FC01EC0F7
:100010001DC01CC01BC01AC019C018C017C016C014
:1000200015C014C013C011241FBECFE5D4E0DEBF3D
:10003000CDBF10E0A0E6B0E0ECEDF3E002C005902B
:100040000D92A63AB107D9F702D0C6C1D9CFCF9247
:10005000DF92EF92FF920F931F93CF93DF9380E88D
:1000600084BF84BF8FE590E077D180E0DDD081E070
:1000700090E060E070E0B1D080E690E0FDD080E2FA
:100080009EE429E130E0F9013197F1F70197D9F7C2
:1000900081E090E060E070E0A0D088E690E0ECD0F5
:1000A00080E29EE429E130E0F9013197F1F7019710
:1000B000D9F781E090E060E070E08FD08FEF87BBF0
:1000C000CC24C394C4ECD9E009E110E028E0D22E9E
:1000D00094E0E92E82E0F82E46D1813669F481E081
:1000E00090E060E070E079D080E060E02DD18AE7B8
:1000F00090E0C2D0C8BA2CC0823669F481E090E0AA
:1001000060E070E06AD080E060E01ED182E890E0BC
:10011000B3D0F8BA1DC0833669F481E090E060E0A6
:1001200070E05BD080E060E00FD18CE890E0A4D07C
:10013000E8BA0EC0843681F481E090E060E070E0BF
:100140004CD080E060E000D186E990E095D0D8BA4C
:10015000CE010197F1F7C0CF853609F0BDCF81E020
:1001600090E060E070E039D080E060E0EDD080EABF
:1001700090E082D018BA80E197E2F8013197F1F768
:100180000197D9F7A9CF84B3807F84BB959A9698BD
:1001900081E08A95F1F721E0979A822F8A95F1F70D
:1001A00083B38295807F922F9A95F1F79798922F3B
:1001B0009A95F1F7979A922F9A95F1F793B3922F18
:1001C0009A95F1F79798922F9A95F1F787FDE4CFDA
:1001D000959884B38F6084BB0895382F662311F4FB
:1001E000969801C0969A21E0822F8A95F1F7979A06
:1001F00085B3932F92959F70807F982B95BB822F0C
:100200008A95F1F79798822F8A95F1F7979A85B397
:100210003F70807F832B85BB822F8A95F1F797985B
:100220002A95F1F7B0DF08951F93182F8BE39BE217
:100230000197F1F784B38F6084BB8F9A8E9A8D9A61
:1002400085B3807F85BB97989598969881E0982F85
:100250009A95F1F7979AA99A982F9A95F1F7979806
:100260008A95F1F790DF812F8C6060E0B6DF88E23D
:1002700060E0B3DF1F910895CF93DF93EC0103C0DB
:1002800061E0ABDF219688818823D1F7DF91CF91A0
:100290000895EF92FF920F931F93DF93CF9300D0B7
:1002A00000D00F92CDB7DEB79C018B01FE013196D5
:1002B00085E0DF011D928A95E9F7FE0135960BC0B6
:1002C000C9016AE070E061D08083C9016AE070E032
:1002D0005CD09B0131972115310591F7BFEF0F3F9E
:1002E0001B0779F420E030E0AE014F5F5F4F02C0A2
:1002F0002F5F3F4FFA01E20FF31F80818823C1F384
:1003000004C025E030E0201B310B7E010894E11C85
:10031000F11CE20EF31E890108C0F70181917F01F3
:10032000805D61E05ADF0F5F1F4F05301105ACF3B0
:100330000F900F900F900F900F90CF91DF911F9122
:100340000F91FF90EF900895883228F46111806436
:10035000806860E042DF089589B990BD86E880BD7D
:1003600088ED8AB908955F9BFECF8CB108955D9B9F
:10037000FECF8CB90895FC0104C05D9BFECF319681
:100380008CB980818823C9F7089597FB092E072629
:100390000AD077FD04D00CD006D000201AF4709556
:1003A00061957F4F0895F6F7909581959F4F089539
:1003B000AA1BBB1B51E107C0AA1FBB1FA617B7078B
:1003C00010F0A61BB70B881F991F5A95A9F78095A7
:0C03D0009095BC01CD010895F894FFCF7A
:1003DC0057656C636F6D6500526561647920546F6D
:1003EC00205265636569766572004D61696E204FB8
:1003FC004E00504F52542031204F4E00504F52540B
:10040C002032204F4E00504F52542033204F4E007C
:06041C0053544F50000094
:00000001FF
